:100000000C945D000C9485000C9485000C94850084
:100010000C9485000C9485000C9485000C9485004C
:100020000C9485000C9485000C9485000C9485003C
:100030000C9485000C9485000C9485000C9485002C
:100040000C9490040C9485000C946F070C94B207E8
:100050000C9485000C9485000C9485000C9485000C
:100060000C9485000C94850000000007000201003C
:100070000003040600000000000000000102040864
:100080001020408001020408102001020408102002
:10009000040404040404040402020202020203032E
:1000A0000303030300000000250028002B000000CC
:1000B0000000240027002A006E0811241FBECFEF85
:1000C000D8E0DEBFCDBF12E0A0E0B1E0E2E6F2E1B1
:1000D00002C005900D92A634B107D9F714E0A6E44A
:1000E000B2E001C01D92A734B107E1F710E0CAEBFE
:1000F000D0E004C02297FE010E94FC08C83BD10753
:10010000C9F70E94DA050C942F090C940000E9E469
:10011000F2E09081992331F0882321F001900020B2
:10012000E9F7F7CFCF010895CF93DF93EC0163E0B8
:1001300071E08DE993E00E944206209741F0BE01F4
:100140008DE993E00E944206C0E0D0E0F0CFDF915D
:10015000CF910895CF93DF93C82F811103C064E23C
:1001600071E027C0DFEFD80F67E271E08DE993E01F
:100170000E9425064AE050E06D2F8DE993E00E9431
:10018000BA066EE271E08DE993E00E942506C25046
:10019000D11103C061E371E00CC0C11103C06EE373
:1001A00071E007C0C13019F468E571E002C06FE684
:1001B00071E08DE993E0DF91CF910C944206CF93EB
:1001C000C82F80FF02C061E001C060E084E00E94AF
:1001D0005A04C1FF02C061E001C060E087E00E94F4
:1001E0005A04C2FF02C061E001C060E088E00E94E2
:1001F0005A04C3FF02C061E001C060E08CE0CF910F
:100200000C945A041F93CF93DF93873098F5811194
:100210001AC016E0115060F1C12FD0E082E00E94B8
:1002200087000E9400099E01F901EE0FFF1FE657AB
:10023000FD4F91838083F901E15DFD4FBC01808119
:100240000E947B05E7CF8150C82FD0E082E00E945A
:1002500087000E940009FE01EE0FFF1FE657FD4FC9
:1002600091838083C15DDD4FBC0188810E947B0545
:1002700080E001C083E0DF91CF911F910895CF937B
:10028000DF9381E00E9487000E940009873008F513
:1002900081110FC0C8E9D2E0699179914AE050E03C
:1002A0008DE993E00E94C10682E0C43AD807A1F725
:1002B00012C08150E82FF0E0EE0FFF1FE856FD4F0F
:1002C000608171814AE050E08DE993E00E94C106AF
:1002D00002C083E001C080E0DF91CF9108958230B9
:1002E00031F481E00E9487000E94000930C081E063
:1002F0000E9487000E940009813108F041C08111ED
:1003000007C08FEF9FEF90938702809386020CC007
:10031000815021E030E002C0220F331F8A95E2F7BE
:10032000309387022093860282E00E9487000E9419
:100330000009833038F5409186025091870282305F
:1003400059F4809147029091480284279527909311
:100350004802809347020CC0209147023091480226
:10036000242B352B3093480220934702813049F7E4
:1003700080914702909148020E94DF0080E008953A
:1003800083E0089581E008951F93CF93DF93C09198
:100390000001D091010188818823F9F08FEF0E943C
:1003A0008700182F6CE771E0CE010E941E09892B8F
:1003B000C9F0C0E061E871E08DE993E00E94420677
:1003C00064E971E080910001909101010E941E0991
:1003D000892B71F41330E9F083E0DF91CF911F9105
:1003E0000C94AA0088E991E00E949400C1E0E2CF59
:1003F00064EB71E08DE993E00E94420660EC71E0ED
:1004000080910001909101010E941E09892B29F021
:100410000AC083E00E940201E0CF1230E9F682E0D8
:100420000E943F01DACF64EC71E08DE993E00E9415
:10043000420663EF71E080910001909101010E94FA
:100440001E09892B41F48EEF810F823028F6812F0F
:100450000E946F01C2CFCC2339F080E090E0DF91A1
:10046000CF911F910C94940082E0B7CFCF9381EA93
:1004700084BD85B5887F816085BD80918100887F3E
:100480008160809381008091B100887F816080933A
:10049000B10084E08BB980E285B918B88FEF8AB9D2
:1004A00084B917B860E07DE780E090E00E94FD0429
:1004B00015B840E05BE460E070E08DE993E00E94F5
:1004C000ED0767EF71E08DE993E00E94420610921C
:1004D0008902C9E080918902863040F5825F0E94DE
:1004E0005E0590938702809386027091890260E096
:1004F000C79FA00111249A01260F311D220F331F1F
:10050000F901E85DFC4F91838083F901E454FD4FCC
:100510009183808321E0260F293010F4622FEBCFE6
:10052000209388027F5F70938902D4CF82E00E947B
:10053000020182E00E943F0182E0CF910C946F01A2
:10054000CF93DF938DE993E00E940407282F8A3030
:1005500011F08D30C9F4E0910001F0910101108299
:10056000E0910001F09101011182C9E4D2E0D09341
:100570000101C09300010E94C401D0930101C09306
:1005800000011092460220C0803221F49091460270
:100590009032D1F09FE9980F9A3110F420E2282789
:1005A00020934602203209F420E0E0910001F0910E
:1005B000010182E0E338F80739F0CF01019690930A
:1005C0000101809300012083DF91CF9108953F9234
:1005D0005F926F927F928F929F92AF92BF92CF92D3
:1005E000DF92EF92FF920F931F93CF93DF938DE9EA
:1005F00093E00E94D706892B19F00E94A002F7CF42
:1006000058E9C52E52E0D52E04EA12E0E12CF12C77
:10061000C0E0D0E069E0362E7AE0872E912CA12C44
:10062000B12C80E090E060E03C9E90013D9E300D5A
:100630001124F901E60FF11DEE0FFF1FE85DFC4FDD
:1006400040815181480F591F6F5F693010F4CA0112
:10065000F0CF5093870240938602609388028C2FDC
:10066000825F0E945E052091860230918702280FEA
:10067000391FC9016AE070E00E94C40870938702C4
:1006800060938602A1E03C9E90013D9E300D1124B6
:10069000C9018A0F911DFC01EE0FFF1FEA5DFC4F9F
:1006A00040815181FC01EE0FFF1FE85DFC4F51833B
:1006B000408381E08A0F893010F4A82FE9CF80931E
:1006C0008802F701E85DFC4F71836083F801808147
:1006D0009181A281B381860F971FA11DB11D8083D7
:1006E0009183A283B38320919602309197022F5F6A
:1006F0003F4F2038310529F030939702209396021E
:1007000059C01092970210929602512C20E030E0CE
:10071000A9013C9E30013D9E700C1124F301E50DB2
:10072000F11DEE0FFF1FE454FD4F60817181260F14
:10073000371F411D511D61E0650D693010F4562EC3
:10074000EDCFBC01CD019595879577956795620FA3
:10075000731F841F951FF801108211821282138269
:1007600041E03C9E30013D9E700C1124D301A40F4A
:10077000B11DFD01EE0FFF1FE85DFC4FAA0FBB1F6F
:10078000A654BD4F2D913C913183208321E0240F4D
:10079000293010F4422FEACF20938802A50194015A
:1007A0000E94D808F701E454FD4F31832083F601FD
:1007B000318320832196F2E1EF0EF11C82E0C80E16
:1007C000D11C0C5F1F4FC630D10509F02ACFDF9135
:1007D000CF911F910F91FF90EF90DF90CF90BF903E
:1007E000AF909F908F907F906F905F903F90089513
:1007F000833081F028F4813099F08230A1F008959F
:100800008630A9F08730B9F08430D1F4809180002F
:100810008F7D03C0809180008F7780938000089542
:1008200084B58F7702C084B58F7D84BD0895809193
:10083000B0008F7703C08091B0008F7D8093B000AF
:100840000895CF93DF9390E0FC01E458FF4F24918B
:10085000FC01E057FF4F8491882349F190E0880F15
:10086000991FFC01E255FF4FA591B4918C559F4F04
:10087000FC01C591D4919FB7611108C0F8948C9187
:10088000209582238C93888182230AC0623051F4A0
:10089000F8948C91322F309583238C938881822B0E
:1008A000888304C0F8948C91822B8C939FBFDF9136
:1008B000CF9108950F931F93CF93DF931F92CDB7DE
:1008C000DEB7282F30E0F901E859FF4F8491F90194
:1008D000E458FF4F1491F901E057FF4F04910023B2
:1008E000C9F0882321F069830E94F8036981E02F11
:1008F000F0E0EE0FFF1FEC55FF4FA591B4919FB7AD
:10090000F8948C91611103C01095812301C0812B53
:100910008C939FBF0F90DF91CF911F910F910895FE
:100920001F920F920FB60F9211242F933F938F9324
:100930009F93AF93BF938091950390919603A0915D
:100940009703B09198033091940323E0230F2D3740
:1009500020F40196A11DB11D05C026E8230F0296C3
:10096000A11DB11D2093940380939503909396034A
:10097000A0939703B09398038091990390919A0361
:10098000A0919B03B0919C030196A11DB11D809382
:10099000990390939A03A0939B03B0939C03BF91F8
:1009A000AF919F918F913F912F910F900FBE0F901C
:1009B0001F9018953FB7F8948091990390919A03EE
:1009C000A0919B03B0919C0326B5A89B05C02F3F27
:1009D00019F00196A11DB11D3FBF6627782F892F01
:1009E0009A2F620F711D811D911D42E0660F771FC6
:1009F000881F991F4A95D1F70895CF92DF92EF9201
:100A0000FF92CF93DF936B017C010E94DA04EB012C
:100A1000C114D104E104F10479F00E94DA046C1BE2
:100A20007D0B683E7340A0F381E0C81AD108E1084D
:100A3000F108C851DC4FECCFDF91CF91FF90EF90E0
:100A4000DF90CF900895789484B5826084BD84B59A
:100A5000816084BD85B5826085BD85B5816085BDB9
:100A6000EEE6F0E0808181608083E1E8F0E01082D2
:100A7000808182608083808181608083E0E8F0E013
:100A8000808181608083E1EBF0E0808184608083FD
:100A9000E0EBF0E0808181608083EAE7F0E0808134
:100AA0008460808380818260808380818160808394
:100AB0008081806880831092C10008958E3008F094
:100AC0008E5087702091020190E4299F900111249B
:100AD000822B80937C0080917A00806480937A00DE
:100AE00080917A0086FDFCCF80917800209179007A
:100AF00090E0922B08951F93CF93DF93182FEB0173
:100B000061E00E942104209711F460E004C0CF3F0F
:100B1000D10539F461E0812FDF91CF911F910C94C1
:100B20005A04E12FF0E0E859FF4FE491E330F9F087
:100B300048F4E130B9F0E230A1F584B5806284BDBB
:100B4000C8BD34C0E630E9F0E73019F1E43049F5CA
:100B500080918000806280938000D0938B00C0934E
:100B60008A0024C084B5806884BDC7BD1FC0809141
:100B70008000806880938000D0938900C0938800B3
:100B800015C08091B00080688093B000C093B3001E
:100B90000DC08091B00080628093B000C093B4001B
:100BA00005C0C038D1050CF0B5CFAFCFDF91CF91E4
:100BB0001F9108950E9423050E943602C9EAD7E0DA
:100BC0000E94E7022097E1F30E94A907F9CFCF9294
:100BD000DF92EF92FF920F931F93CF93DF936C01FD
:100BE0007A01EB01E60EF71E00E010E0CE15DF05FE
:100BF00061F06991D601ED91FC910190F081E02DB9
:100C0000C6010995080F191FF1CFC801DF91CF91D7
:100C10001F910F91FF90EF90DF90CF900895611595
:100C2000710581F0DB010D900020E9F7AD01415025
:100C30005109461B570BDC01ED91FC910280F381B9
:100C4000E02D099480E090E008950C940F06DC01FB
:100C5000ED91FC910190F081E02D09940F931F9389
:100C6000CF93DF93EC016DE00E9427068C016AE0D0
:100C7000CE010E942706800F911FDF91CF911F9117
:100C80000F9108950F931F93CF93DF93EC010E9470
:100C90000F068C01CE010E942E06800F911FDF915E
:100CA000CF911F910F9108958F929F92AF92BF9213
:100CB000CF92DF92EF92FF920F931F93CF93DF9328
:100CC000CDB7DEB7A1970FB6F894DEBF0FBECDBF8C
:100CD0007C01C42EE52FCB01D22E19A221E02D15C7
:100CE00010F02AE0D22E8E010F5D1F4F8D2C912C1B
:100CF000A12CB12C6C2D7E2FA50194010E94D80847
:100D00008C2DD29E80191124015011098A3014F4BF
:100D1000805D01C0895CF8018083211531054105A2
:100D2000510521F0C22EE32FCA01E4CFB801C7015B
:100D30000E940F06A1960FB6F894DEBF0FBECDBF7E
:100D4000DF91CF911F910F91FF90EF90DF90CF90A7
:100D5000BF90AF909F908F9008952115310541F479
:100D6000DC01ED91FC910190F081E02D642F09945C
:100D70000C9454069A01462F50E060E070E00C9409
:100D8000AD060F931F93CF93DF93EC019A01AB0154
:100D900060E070E00E94AD068C01CE010E942E063C
:100DA000800F911FDF91CF911F910F910895FC014A
:100DB00024853585F901E05CFF4F80819181F9013F
:100DC000EE5BFF4F20813181821B930B8F7399273C
:100DD0000895FC0184859585FC01E05CFF4F40810E
:100DE0005181FC01EE5BFF4F208131814217530797
:100DF00041F00190F081E02DE80FF91F808190E033
:100E000008958FEF9FEF0895FC0184859585FC017F
:100E1000E05CFF4F40815181FC01EE5BFF4F208180
:100E200031814217530779F0A081B181A80FB91F12
:100E30008C91208131812F5F3F4F2F733327318376
:100E4000208390E008958FEF9FEF0895FC0181A12A
:100E5000882329F0A489B5898C9186FFFBCF11A244
:100E60000895CF93DF93FC0126853785D901A05CD7
:100E7000BF4F8D919C91119701968F739927E9012E
:100E8000CE5BDF4F4881598184179507D9F30D90C8
:100E9000BC91A02DA20FB31F6C93A685B785A05C53
:100EA000BF4F11969C938E93A689B7892C9181E0B0
:100EB00090E0078C02C0880F991F0A94E2F7282B54
:100EC0002C9381E081A30488F589E02D80818064E2
:100ED000808381E090E0DF91CF91089508951F9283
:100EE0000F920FB60F9211242F933F934F938F932E
:100EF0009F93EF93FF938091C00082FD1CC04091AF
:100F0000C600809143049091440401968F73992701
:100F100020914504309146048217930771F0E091C7
:100F20004304F0914404ED5FFB4F408390934404ED
:100F30008093430402C08091C600FF91EF919F917E
:100F40008F914F913F912F910F900FBE0F901F9057
:100F500018958DE993E00E94D706892B11F00C9427
:100F60006E0708951F920F920FB60F9211242F93C0
:100F70003F938F939F93EF93FF932091FF033091C3
:100F8000000480910104909102042817390731F47C
:100F90008091C1008F7D8093C10014C0E091010455
:100FA000F0910204E154FC4F208180910104909162
:100FB000020401968F739927909302048093010491
:100FC0002093C600FF91EF919F918F913F912F91B8
:100FD0000F900FBE0F901F901895CF92DF92EF9257
:100FE000FF92CF93DF93EC016A017B01411581EE03
:100FF000580761057105F9F0EC89FD8981E090E001
:1010000008A002C0880F991F0A94E2F7808360E06D
:1010100079E08DE390E0A70196010E94D808215065
:10102000310941095109569547953795279521155D
:1010300080E1380798F0EC89FD89108260E874E857
:101040008EE190E0A70196010E94D8082150310955
:10105000410951095695479537952795E889F989AA
:101060003083EA89FB89208319A2EE89FF894081B8
:1010700081E090E09C010C8C02C0220F331F0A9487
:10108000E2F7422B4083EE89FF8940819C010D8C61
:1010900002C0220F331F0A94E2F7422B4083EE89ED
:1010A000FF8940819C010E8C02C0220F331F0A94DD
:1010B000E2F7422B4083EE89FF8920810F8C02C02A
:1010C000880F991F0A94E2F7809582238083DF912D
:1010D000CF91FF90EF90DF90CF9008951092A003F2
:1010E00010929F0388EE93E0A0E0B0E08093A1030C
:1010F0009093A203A093A303B093A40389E392E087
:1011000090939E0380939D0383E094E09093AA03C1
:101110008093A9038FEB93E09093AC038093AB0390
:1011200085EC90E09093AE038093AD0384EC90E067
:101130009093B0038093AF0380EC90E09093B20360
:101140008093B10381EC90E09093B4038093B30358
:1011500082EC90E09093B6038093B50386EC90E028
:101160009093B8038093B70384E08093B90383E03E
:101170008093BA0387E08093BB0385E08093BC0330
:1011800081E08093BD030895AA1BBB1B51E107C0FA
:10119000AA1FBB1FA617B70710F0A61BB70B881F07
:1011A000991F5A95A9F780959095BC01CD01089596
:1011B000A1E21A2EAA1BBB1BFD010DC0AA1FBB1F5B
:1011C000EE1FFF1FA217B307E407F50720F0A21BCD
:1011D000B30BE40BF50B661F771F881F991F1A943A
:1011E00069F760957095809590959B01AC01BD0164
:1011F000CF010895EE0FFF1F0590F491E02D0994A3
:10120000FC0188279927E89421912032E9F32930BD
:1012100010F02E30C8F32B3241F02D3239F468949F
:1012200004C00E942709820F911D219120532A306A
:10123000C0F31EF4909581959F4F0895FB01DC014A
:101240008D91019080190110D9F3990B08957AE0DE
:10125000979F902D879F802D910D11240895F894CC
:02126000FFCFBE
:101262004902012A2A2A2A2A2A2A2A2A2A2A2A2A0E
:101272002A2A2A2A2A2A2A2A2A2A2A2A2A2A2A2ACC
:101282002A2A2A004F4B004552524F5223003A0954
:101292000053796E746178204572726F72005772D2
:1012A2006F6E67206E756D626572206F6620417287
:1012B20067756D656E747300417267756D656E74E6
:1012C200206F7574206F662052616E67652000532F
:1012D200797374656D204572726F720048454C5087
:1012E20000090950574D203C69643E203C76616CF0
:1012F20075653E0050574D00094C697374206F6646
:1013020020537570706F7274656420436F6D6D61E8
:101312006E6473000909414443203C69643E09003C
:101322004144430009094F5554203C76616C756570
:101332003E0A09096F7574203C70696E3E203C7349
:10134200746174653E092D2D20323D3D746F6767CF
:101352006C65004F5554002456455253494F4E2058
:101362004F70656E70506E502D4D61746520302E39
:101372003031205B7573652048454C5020666F7292
:1013820020636F6D6D616E64206C6973745D00051E
:1013920006090A030B000000003107E705D706041F
:0613A20007E90626070022
:00000001FF
